:020000040800F2
:1000000000000220B9020008BF020008C302000875
:1000100035030008390300088103000800000000D0
:10002000000000000000000000000000C9030008FC
:10003000CD03000800000000D10300084D1B00089C
:10004000E5030008E5030008E5030008E5030008F0
:10005000E5030008E5030008E5030008E5030008E0
:10006000E5030008E5030008E5030008E5030008D0
:10007000E5030008E5030008E5030008E5030008C0
:10008000E5030008E5030008E5030008E5030008B0
:10009000E5030008E5030008E5030008E5030008A0
:1000A000E5030008E5030008E5030008E503000890
:1000B000E5030008E5030008E5030008E503000880
:1000C000E5030008E5030008E5030008E503000870
:1000D000E5030008E5030008E5030008E503000860
:1000E000E5030008E5030008E5030008E503000850
:1000F000E5030008E5030008E5030008E503000840
:10010000E5030008E5030008E5030008E50300082F
:10011000E5030008E5030008E5030008E50300081F
:10012000E5030008E5030008E5030008E50300080F
:10013000E5030008E5030008E5030008E5030008FF
:10014000E5030008E5030008E5030008E5030008EF
:10015000E5030008E5030008E5030008E5030008DF
:10016000E5030008E5030008E5030008E5030008CF
:10017000E5030008E5030008E503000800000000AF
:10018000E5030008E503000800B583B001F094FB27
:10019000384B394A1360394A1360394906E052F83E
:1001A000041B43F8041B9842F9D86146354B994229
:1001B00005D20A684B6801F10C0C8868F3E72E4BF6
:1001C0001A68314B9A4200D0FEE72C4B1A682F4B2D
:1001D0009A42F9D1274B2E4A13602E4A13602E4AB9
:1001E00000E002462D4B9A4209D2104650F8083BD7
:1001F00051689942F5D9002243F8042BF9E7244BC2
:100200001B6813B9234B1B6803B1FEE701F008FC20
:10021000694601A801F056F8214C224BE41AA410BB
:10022000002504E01F4B53F8253098470135AC42B8
:10023000F8DC1D4C1D4BE41AA410002504E01B4BF8
:1002400053F8253098470135AC42F8DC0099019805
:1002500001F0F8FB0546164C164BE41AA41004E016
:10026000013C144B53F824309847002CF8DC284606
:1002700000F0C4FFBABADECA00000020D00000209F
:10028000E8030008000400087856341232547698C7
:10029000D4000020FC030020000400081004000823
:1002A00010040008100400081004000810040008DE
:1002B000100400081004000808B5FFF765FF00BE31
:1002C000FEE71EF0040F0CBFEFF30880EFF3098088
:1002D0007146414A10472DE9F04182B004460D466F
:1002E000124B5F6BD3F838809E6A1B6B13F0020FC2
:1002F00003D00E4BDB6A002B0BDB0D4801F0B6F987
:10030000009543463A463146204601F0EBF900BEDF
:10031000FEE74BF6AB6101F05FFA0028EDD0034B2E
:100320004FF00042DA6202B0BDE8F08100ED00E07B
:100330000C49000800BEFEE71EF0040F0CBFEFF3EF
:100340000880EFF309807146244A10472DE9F041F7
:1003500082B004460D46084B5F6BD3F838809E6A26
:10036000064801F083F9009543463A463146204657
:1003700001F0B8F900BEFEE700ED00E01C490008FE
:100380001EF0040F0CBFEFF30880EFF309807146F5
:10039000134A10472DE9F04182B004460D46084B40
:1003A0005F6BD3F838809E6A064801F05FF90095CC
:1003B00043463A463146204601F094F900BEFEE736
:1003C00000ED00E02849000800BEFEE700BEFEE7A1
:1003D00000BEFEE770470000D70200084D0300088A
:0803E0009503000800BEFEE7D2
:1003E800204E000800000020D4000020204E000805
:1003F8000000001000000010D400002000040020BD
:080408000000001000000010CC
:1004100010B504460E4B1A784FF47A73B3FBF2F31F
:100420000C4A1068B0FBF3F000F0BAF868B90F2C72
:1004300001D901200AE0002221464FF0FF3000F0F0
:100440008BF8054B1C60002000E0012010BD00BFB0
:1004500004000020100000200800002008B50B4B0D
:100460001A6842F400721A601A6842F480621A60D4
:100470001A6842F480721A60032000F04FF80F20CF
:10048000FFF7C6FF01F056FB002008BD003C02400C
:10049000034A1168034B1B780B441360704700BF7D
:1004A000D800002004000020014B1868704700BFEE
:1004B000D8000020002808DB0901C9B200F1604023
:1004C00000F5614080F80013704700F00F0009014B
:1004D000C9B2014B1954704714ED00E000B500F0AB
:1004E0000700C0F1070CBCF1040F28BF4FF0040C4B
:1004F000031D062B0FD9C31E4FF0FF3E0EFA0CF062
:1005000021EA000199400EFA03FE22EA0E0241EAB6
:1005100002005DF804FB0023EEE7000010B504467E
:10052000C31E042B0FD80A4AD36823F4E0631B04CC
:100530001B0C240204F4E064234343F0BF6343F440
:100540000033D36010BD9221024801F071FAEAE74E
:1005500000ED00E00447000870B506460C4615465D
:100560000F2A0ED80F2C11D80B4BD8682A462146DB
:10057000C0F30220FFF7B2FF01463046FFF79AFFB3
:1005800070BDAA21054801F053FAEBE7AB210348FF
:1005900001F04EFAE8E700BF00ED00E00447000874
:1005A0000138B0F1807F0BD24FF0E0235861054A4B
:1005B000F02182F823100020986107221A61704709
:1005C0000120704700ED00E008B5042807D068B9A5
:1005D0004FF0E022136923F00403136108BD4FF0CC
:1005E000E022136943F004031361F7E740F2C911F5
:1005F000014801F01DFAEBE7044700082DE9F0433C
:1006000083B007460E46AC4B984223D003F5806377
:1006100098421FD003F5806398421BD003F5806396
:10062000984217D003F58063984213D003F5806396
:1006300098420FD003F5806398420BD003F5806396
:10064000984207D003F58063984203D0B3219B48BA
:1006500001F0EEF933689AB212B1B3F5803F03D3DB
:10066000B421964801F0E4F97368012B11D9944A3A
:1006700093420ED015D8A2F58012934209D003D927
:10068000904A934205D017E0032B07D9113B012B69
:1006900012D8B368022B14D80024B4E0022B0BD379
:1006A000F7E7894A9342F4D002F580329342F0D0C2
:1006B000A2F580129342ECD0B521804801F0B8F940
:1006C000E7E7B6217D4801F0B3F9E5E7C8217B48AB
:1006D00001F0AEF9ADE00F2B40F0DA80E20808320D
:1006E00057F8220004F0070189000F238B4020EA0D
:1006F000030033698B40034347F822303B6809EA23
:100700000309736803F00303AB4043EA09033B604A
:10071000736813F0805F75D0002301936B4B5A6CA4
:1007200042F480425A645B6C03F480430193019B62
:10073000A208911C664B53F8210004F003018900C4
:100740000F238B4020EA03005B4B9F4225D003F52B
:1007500080639F4200F0A18003F580639F4200F018
:100760009E8003F580639F4200F09B8003F58063C9
:100770009F4200F0988003F580639F4200F09580CF
:1007800003F580639F4200F0928003F580639F42EF
:1007900001D0082302E0072300E000238B4003433D
:1007A00002324B4941F822304A4B1A686FEA08037B
:1007B00022EA0801706810F4803F01D048EA020183
:1007C000444A1160526803EA0201706810F4003F65
:1007D00001D048EA02013F4A5160926803EA0201EF
:1007E000706810F4801F01D048EA0201394A916014
:1007F000D2681340716811F4001F01D048EA020367
:10080000344AD36001340F2C53D80125A5403368F6
:1008100003EA050835EA0303F4D173685A1E012A76
:1008200003D9112B01D0122B16D1F368032B3FF6FD
:100830004DAFBA68610003238B4022EA0302F368DC
:100840008B401343BB607A6822EA05027368C3F3E6
:100850000013A34013437B60FA6865000323AB4099
:100860006FEA030922EA0302B368AB401343FB605B
:100870007368022B02D0122B7FF440AF3369002B38
:100880003FF42CAF0D2B3FF626AF002B7FF426AFA5
:10089000E0210A4801F0CCF820E701237EE702239B
:1008A0007CE703237AE7042378E7052376E706232A
:1008B00074E703B0BDE8F083000002403847000849
:1008C000000021100000121000003110003802401A
:1008D00000380140003C014070B5054614460E4604
:1008E00021B1012C08D86CB1AE6170BD40F29F11EE
:1008F000064801F09DF8F4E74FF4D071034801F089
:1009000097F8F0E73604AE61EFE700BF384700081C
:10091000002800F05B8270B582B0044603680F2B9C
:1009200039D8236813F0010F4DD063682BB1B3F5AC
:10093000803F02D0B3F5A02F32D1804B9B6803F0EB
:100940000C03042B36D07D4B9B6803F00C03082B63
:100950002BD06368B3F5803F5FD0B3F5A02F62D092
:10096000764B1A6822F480321A601A6822F48022C8
:100970001A606368002B60D0FFF796FD05466F4B49
:100980001B6813F4003F1ED1FFF78EFD401B642847
:10099000F5D9032021E2E821694801F049F8C0E7D0
:1009A000ED21674801F044F8C7E7644B5B6813F436
:1009B000800FCED0614B1B6813F4003F03D06368F7
:1009C000002B00F00582236813F0020F66D0E36865
:1009D000012B41D823691F2B44D8584B9B6813F037
:1009E0000C0F4AD0554B9B6803F00C03082B3FD0EB
:1009F000E368002B77D0534B01221A60FFF754FDB8
:100A000005464E4B1B6813F0020F63D1FFF74CFDF8
:100A1000401B0228F5D90320DFE1484A136843F45C
:100A200080331360A5E7454B1A6842F480221A60B0
:100A30001A6842F480321A609BE7FFF735FD0546DD
:100A40003E4B1B6813F4003FBDD0FFF72DFD401B4C
:100A50006428F5D90320C0E140F21F11384800F0A6
:100A6000E7FFB7E74FF49071354800F0E1FFB4E7D6
:100A7000324B5B6813F4800FBAD1304B1B6813F014
:100A8000020F03D0E368012B40F0A4812B4A1368C6
:100A900023F0F803216943EAC1031360236813F0CC
:100AA000080F51D06369012B2FD863699BB3254B85
:100AB0000122C3F8802EFFF7F7FC05461F4B5B6F42
:100AC00013F0020F40D1FFF7EFFC401B0228F5D9CD
:100AD000032082E1194A136823F0F803216943EAED
:100AE000C1031360DAE7174B00221A60FFF7DCFC42
:100AF0000546124B1B6813F0020FCFD0FFF7D4FC52
:100B0000401B0228F5D9032067E14FF4B0710C486F
:100B100000F08EFFC9E70B4B0022C3F8802EFFF7D1
:100B2000C3FC0546054B5B6F13F0020F0CD0FFF7BB
:100B3000BBFC401B0228F5D903204EE100380240DF
:100B40006847000800004742236813F0040F7CD078
:100B5000A368012B01D9052B38D1A44B1B6C13F0D2
:100B6000805F39D100230193A04B1A6C42F0805270
:100B70001A641B6C03F080530193019B01259C4B6D
:100B80001B6813F4807F29D0A368012B3AD0052B72
:100B90003ED0964B1A6F22F001021A671A6F22F0AC
:100BA00004021A67A368002B3CD0FFF77DFC0646C1
:100BB0008E4B1B6F13F0020F45D1FFF775FC801BA6
:100BC00041F288339842F3D9032006E14FF4C6710D
:100BD000884800F02DFFC0E70025D0E7844A13685D
:100BE00043F480731360FFF75FFC0646804B1B687D
:100BF00013F4807FC8D1FFF757FC801B0228F5D97A
:100C00000320EAE0794A136F43F001031367C9E751
:100C1000764B1A6F42F004021A671A6F42F0010213
:100C20001A67BFE7FFF740FC0646704B1B6F13F0D7
:100C3000020F08D0FFF738FC801B41F2883398423E
:100C4000F3D90320C9E0002D3ED1A369022B41D87E
:100C5000A369002B00F0C080644A926802F00C0285
:100C6000082A00F09380022B7CD1E36913B1B3F51D
:100C7000800F35D1236A3F2B38D8636A323BB3F5F6
:100C8000BF7F39D8A36A022B08D0082B3AD84FF47B
:100C9000A87222FA03F313F0010F33D0E36A023B88
:100CA0000D2B35D8544B00221A66FFF7FDFB054685
:100CB0004E4B1B6813F0007F30D0FFF7F5FB401B55
:100CC0000228F5D9032088E0484A136C23F08053AA
:100CD0001364BAE740F2CF11464800F0A9FEB7E727
:100CE0004FF4EC71434800F0A3FEC3E740F2D91182
:100CF000404800F09DFEC0E74FF4ED713D4800F024
:100D000097FEBFE740F2DB113A4800F091FEC5E7DD
:100D10004FF4EE71374800F08BFEC3E7E369226AB7
:100D20001343626A43EA8213A26A5208013A43EA11
:100D30000243E26A43EA02632C4A53602E4B0122CB
:100D40001A66FFF7B1FB0446284B1B6813F0007FBF
:100D500006D1FFF7A9FB001B0228F5D903203CE0D0
:100D600000203AE0244B00221A66FFF79DFB044660
:100D70001E4B1B6813F0007F06D0FFF795FB001B8E
:100D80000228F5D9032028E0002026E0012B26D0F8
:100D9000164B5B6803F48001E269914221D103F0B4
:100DA0003F02216A8A421ED1616A47F6C0721A4028
:100DB0008A4223D103F44032A16A8A4220D103F04F
:100DC0007063E26A93421DD1002006E00120704763
:100DD000012002E0012000E0002002B070BD0120EF
:100DE000FBE70120F9E70120F7E700BF00380240E8
:100DF0000070004068470008000047420120ECE70F
:100E00000120EAE70120E8E708B5334B9B6803F0CF
:100E10000C03042B5BD0082B5BD12F4B5A6802F0DC
:100E20003F025B6813F4800F2CD02B4B5868C0F343
:100E300088104FEA401CBCEB000C6EEB0E0E4FEA24
:100E40008E1343EA9C634FEA8C11B1EB0C0163EB08
:100E50000E03DB0043EA5173C90011EB000C43F1B0
:100E60000003590200234FEA4C2041EADC5100F014
:100E700073FE194B5B68C3F3014301335B00B0FBA6
:100E8000F3F027E0144B5868C0F388104FEA401C79
:100E9000BCEB000C6EEB0E0E4FEA8E1343EA9C6324
:100EA0004FEA8C11B1EB0C0163EB0E03DB0043EA5C
:100EB0005173C90011EB000C43F1000399020023A8
:100EC0004FEA8C2041EA9C5100F046FED1E70348EE
:100ED00000E0034808BD00BF0038024000127A005D
:100EE0000024F400002800F0FA8070B50D46044696
:100EF0000368013B0E2B30D8072D34D87C4B1B6880
:100F000003F00F03AB4208D2EBB2794A13701368B7
:100F100003F00F03AB4240F0E480236813F0020FAC
:100F200032D013F0040F04D0724A936843F4E053B4
:100F30009360236813F0080F04D06E4A936843F45B
:100F400060439360A368C3B1C02B16D049D8A02BCF
:100F500013D00ED9B02B10D049E040F25121664891
:100F600000F066FDC8E740F25221634800F060FDE2
:100F7000C4E7802B01D0902B39D15E4A936823F0CF
:100F8000F003A1680B439360236813F0010F48D06E
:100F90006368032B31D86368012B34D09A1E012A71
:100FA00038D9544A126812F0020F00F09C8051495F
:100FB0008A6822F0030213438B60FFF775FA064636
:100FC0004C4B9B6803F00C036268B3EB820F28D094
:100FD000FFF76AFA801B41F288339842F0D9032068
:100FE00070E0E02BC9D0F02BC7D0D02BC5D040F299
:100FF0007521414800F01CFDBFE74FF41F713E48CA
:1010000000F016FDC7E73B4A126812F4003FCED14C
:10101000012057E0374A126812F0007FC7D1012043
:1010200050E0334B1B6803F00F03AB4207D9EAB221
:101030002F4B1A701B6803F00F03AB4255D1236886
:1010400013F0040F14D0E3685BB1B3F5805F08D0F0
:10105000B3F5A05F05D0B3F5C05F02D0B3F5E05F94
:1010600031D1244A936823F4E053E1680B43936041
:10107000236813F0080F15D023695BB1B3F5805FC7
:1010800008D0B3F5A05F05D0B3F5C05F02D0B3F5CB
:10109000E05F1ED1174A936823F46043216943EA55
:1010A000C1039360FFF7B0FE124B9B68C3F30313B9
:1010B000124AD35CD840124B1860124B1868FFF7E5
:1010C000A7F9002070BD40F2BA210B4800F0B0FC37
:1010D000C7E740F2C121084800F0AAFCDAE7012086
:1010E00070470120EEE70120ECE70120EAE700BFAE
:1010F000003C0240003802406847000838490008B8
:101100001000002008000020014B1868704700BF45
:101110001000002000B583B08C46194652B1144629
:10112000064B0194009363460246054800F09EFA80
:1011300000F00AF8034B1C46F3E700BF984700088D
:10114000A84700087449000808B5034800F0A8FA49
:10115000012000F053F800BFD847000808B5034647
:101160000C4A12685AB10B4A1068033323F0030388
:101170000344094A934206D8064A136008BD054A4B
:1011800006491160EFE701F051FB0C2303604FF0BB
:10119000FF30F3E7DC00002000FC01200004002009
:1011A000132809D8064B53F83030B3F1FF3F05D070
:1011B000034B03EBC00070470020704700207047CE
:1011C0006401002030B51324002520462946ABBE1B
:1011D0000446204630BD38B5044601F027FB0546DD
:1011E000FFF7F0FF2860204638BDB0F1FF3F00D088
:1011F000704708B5FFF7EFFF08BD000000B530B934
:10120000044D182420462946ABBE0446FEE7024D95
:10121000F7E700BF26000200230002002DE9F0419D
:1012200084B0234F019703260396002302930124E1
:1012300001AD20462946ABBE80461E4BC3F8008058
:10124000019703960423029320462946ABBE8046AD
:10125000194BC3F800800197039608230293204698
:101260002946ABBE0446154B1C60B4F1FF3F01D0CC
:1012700000230AE0104B1A68104B1A60F8E7104A76
:101280004FF0FF3142F833100133132BF7DD0C4BD5
:10129000084A12681A6000225A6007490968996072
:1012A000DA600649096819615A6104B0BDE8F08145
:1012B000EC470008600100205C010020580100207C
:1012C000640100202DE9F04383B0814688462A4B13
:1012D00000934F23019315276C4638462146ABBE39
:1012E0000746AFBB244B002283F84F20009A3E46AE
:1012F0003C463D4607E001321E46204B43F8252080
:1013000001350124013292F90030FBB164B91C4966
:10131000C9560029F6DB092BF4D0082D16DC222B48
:10132000E9D0272BE9D1E6E736B19E42EAD1002386
:1013300013703E463C46E5E71149C956002901DBDA
:10134000092BDFD1002313703446DBE73DB900E001
:101350000025094B00221A70084A13600135074B1B
:10136000002243F82520C9F80050C8F80030FFF7E4
:1013700055FF03B0BDE8F08308010020E000002025
:10138000524A000830B585B00190029103920624BC
:1013900001AD20462946ABBE04462046FFF725FF97
:1013A00005B030BD70B50D461446FFF7F9FE68B1C3
:1013B0000646224629460068FFF7E4FFB0F1FF3FEA
:1013C00003D07368201A0344736070BD01F02EFAD5
:1013D000092303604FF0FF30F7E7F0B583B00C4608
:1013E0001546FFF7DDFEC0B10646022D1CD8012DC3
:1013F00021D0022D29D03368009301940A256F462D
:1014000028463946ABBE05462846FFF7EEFE0028C3
:101410002BDB7460204603B0F0BD01F007FA09230E
:1014200003604FF0FF30F6E701F000FA1623036087
:101430004FF0FF30EFE74368E418DCD501F0F6F930
:10144000162303604FF0FF30E5E7036800930C2597
:101450006F4628463946ABBE05462846FFF7C5FE0F
:10146000B0F1FF3FD7D00444C5E74FF0FF30D2E7DB
:1014700008B5FFF7B2FF08BD30B585B00190029105
:101480000392052401AD20462946ABBE0446204602
:10149000FFF7ABFE05B030BD70B50D461446FFF743
:1014A0007FFE70B10646224629460068FFF7E4FF3A
:1014B000031E11DB7268E01A024472609C4207D07E
:1014C00070BD01F0B3F9092303604FF0FF30F7E777
:1014D0000020FFF780FEF3E74FF0FF30F0E730B574
:1014E00083B00190022401AD20462946ABBE0446DC
:1014F0002046FFF77AFE03B030BD000038B5044641
:10150000FFF74EFE80B10546601E012804D80C4B43
:101510009A681B699A420ED02868FFF7E0FF10B95D
:101520004FF0FF332B6038BD01F080F909230360D1
:101530004FF0FF30F7E74FF0FF332B600020F2E76A
:101540006401002070B50C46FFF72AFEA8B10646DC
:10155000636843F4005363604FF48063A3640C2515
:1015600028463146ABBE05462846FFF73EFEB0F1A1
:10157000FF3F01D02061002070BD01F057F9092321
:1015800003604FF0FF30F7E738B505460C465822A8
:101590000021204600F0E2FC21462846FFF7D2FF5A
:1015A00038BDF0B50C4650B1064600271125284637
:1015B0003946ABBE0546EB1735607360B76014B1B2
:1015C0000023236063600020F0BD38B5FFF7E8FD1D
:1015D00080B10546092420462946ABBE0446204674
:1015E000012C06D001F022F90446FFF7EBFD206044
:1015F000002038BD01F01AF9092303600020F8E744
:101600002DE9F04385B004460F4643563BBB042505
:1016100028462146ABBE0546384605B0BDE8F083F6
:1016200014F901CB03F110026A4402F810CC013323
:10163000AB42F5D310336B44002203F8102C4FF06B
:101640000408E94640464946ABBE8046761B002E5C
:10165000E2D03546102E28BF10250023E8E70E46BD
:10166000F5E708B5FFF7CCFF08BD00000FB400B5E3
:1016700083B004AB53F8042B01938021074800F09A
:101680005FFC002804DC03B05DF804EB04B0704795
:1016900001460248FFF7E5FFF5E700BF0C02002016
:1016A00010B5044601F0DFF801462046FFF7D9FFE8
:1016B00001210248FFF7D5FF10BD00BF8848000890
:1016C000BFF34F8F0549CA6802F4E062044B13432D
:1016D000CB60BFF34F8F00BFFDE700BF00ED00E020
:1016E0000400FA05F8B504460D4617461E4627487D
:1016F000FFF7BCFF21682648FFF7B8FF616825485F
:10170000FFF7B4FFA1682448FFF7B0FFE168234862
:10171000FFF7ACFF21692248FFF7A8FF6169214864
:10172000FFF7A4FFA1692048FFF7A0FFE1691F4868
:10173000FFF79CFF1E48FFF799FF29461D48FFF75A
:1017400095FF1D4CE16A1D48FFF790FF216B1C4877
:10175000FFF78CFFE16B1B48FFF788FF15F0800F48
:101760000AD115F4004F0CD11748FFF77FFF0699F7
:101770001648FFF77BFFF8BD39461548FFF776FF9F
:10178000EFE731461348FFF771FFEDE7F047000838
:1017900000480008104800082048000830480008A9
:1017A0004048000850480008604800087048000899
:1017B000804800088C48000800ED00E09C480008C4
:1017C000AC480008BC480008EC480008F448000891
:1017D000CC480008DC48000838B583691B888B4278
:1017E00001D0002038BD044603684568013B302B1A
:1017F0005ED8DFE803F03B211C1C5330332D191950
:101800005D19191919193619245D19275D395D5D9E
:101810005D5D5D5D5D5D5D5D5D5D5D5D5D5D5D5DF8
:101820005D5D5D5D5D1919004FF0FF330360A369D5
:101830000233A3610120D5E700230360F7E700230B
:101840000360F4E700232B606B60AB60EB60EEE7B6
:1018500000230360EBE7AB680360E8E70023036065
:10186000E5E700230360E2E7FFF72AFF1149286854
:1018700000F0E7FF40B96B6813B901232360D6E796
:10188000042B05D0082B06D04FF0FF332360CEE7A2
:1018900002232360CBE703232360C8E72B68023BC6
:1018A000012B02D9AB680360C1E700230360BEE7E8
:1018B000002097E7EC47000808B500F009F8024A55
:1018C000024B9A6008BD00BF0000000800ED00E078
:1018D000024B4FF000629A60704700BF00ED00E0DD
:1018E000224B9B6803F00C03042B14D0082B16D05A
:1018F0001BB11F4B1F4A1A6002E01D4B1D4A1A60A4
:101900001A4B9B68C3F303131B4AD15C184A136834
:10191000CB4013607047164B184A1A60F0E7134B20
:1019200059685A6802F03F0211F4800F13D0134B2C
:10193000B3FBF2F30D4A5268C2F3881202FB03F3C1
:101940000A4A5268C2F3014201325200B3FBF2F379
:10195000074A1360D4E7074BB3FBF2F3034A52681C
:10196000C2F3881202FB03F3EAE700BF003802402B
:10197000100000200024F4003849000800127A000A
:1019800030B595B000240194224B1A6C42F080527D
:101990001A641B6C03F080530193019B02941E4B4D
:1019A0001A6842F480421A601B6803F48043029371
:1019B000029B012308934FF4803309934FF4800373
:1019C0000F93082310934FF4A873119302251295D7
:1019D000072313930E9508A8FEF79AFF0F2303938E
:1019E000049505944FF4A05306934FF48053079346
:1019F000052103A8FFF776FAFFF786FB074BA3FB49
:101A000000308009FEF7CCFD0420FEF7DDFD15B0A7
:101A100030BD00BF0038024000700040D34D62105E
:101A200008B5FEF71BFDFFF7ABFFFFF759FF08BD39
:101A300008B50A4601460248FFF718FEFEE700BF58
:101A40004849000810B5BCB0C82200210AA800F01F
:101A500085FA002413E000F0F7F9304A82FB0032E7
:101A6000C317C3EB620303EB830203EB4203C31A06
:101A700014333CAA02EB840242F8C83C0134312CF6
:101A8000E9DDFEF7EBFC00240194254B1A6B42F0D4
:101A900008021A631B6B03F008030193019B4FF4C8
:101AA000805305930123069307940223089305A905
:101AB0001C48FEF7A3FD10E001331B4A9342FBDDF7
:101AC00000224FF480511748FEF706FF002300E084
:101AD0000133154A9342FBDD0134312C1DDC3CAB54
:101AE00003EB840353F8C81C104800F0EBF9002006
:101AF00000F090FBCDE9020102A800F07FFA00F0AF
:101B000035FA01460A4800F0DDF901224FF4805110
:101B10000448FEF7E1FE0023CFE7FEE7E9A28B2EA3
:101B200000380240000C0240FF45C32378490008FA
:101B30009849000870470000034B1B681BB1024A1C
:101B40001368013B136070478C02002008B5FEF754
:101B50009FFCFFF7F1FF08BD53B94AB9002908BF40
:101B600000281CBF4FF0FF314FF0FF3000F06AB982
:101B7000ADF1080C6DE904CE00F006F8DDF804E0E4
:101B8000DDE9022304B070472DE9F047089D0C46BB
:101B9000002B4ED194468C458646B2FA82F262D929
:101BA0004AB1C2F12003914020FA03F30CFA02FC7F
:101BB000194300FA02FE4FEA1C471FFA8CF6B1FBEC
:101BC000F7F44FEA1E4307FB141143EA014304FBF9
:101BD00006F199420AD91CEB030304F1FF3080F0AF
:101BE0001281994240F20F81023C6344591A1FFA54
:101BF0008EF3B1FBF7F007FB101143EA014300FB42
:101C000006F69E420AD91CEB030300F1FF3180F077
:101C1000FC809E4240F2F980634402389B1B40EAFC
:101C2000044000211DB1D3400022C5E90032BDE8C7
:101C3000F0878B4205D90DB1C5E9000100210846A6
:101C4000F5E7B3FA83F1002946D1A34202D39042CB
:101C5000C0F0F080861A64EB03030120002DE6D06B
:101C6000C5E90063E3E7002A40F09080A1EB0C0493
:101C70004FEA1C481FFA8CF70121B4FBF8F64FEA33
:101C80001E4308FB164443EA044307FB06F0984250
:101C900008D91CEB030306F1FF3402D2984200F28C
:101CA000CD8026461C1A1FFA8EF3B4FBF8F008FB11
:101CB000104443EA044300FB07F79F4208D91CEB9A
:101CC000030300F1FF3402D29F4200F2B0802046AD
:101CD000DB1B40EA0640A5E7C1F120068B4022FA53
:101CE00006F71F4320FA06FC04FA01F343EA0C034B
:101CF000F44000FA01F8380C4FEA1349B4FBF0FE47
:101D00001FFA87FC00FB1E4449EA04440EFB0CF951
:101D1000A14502FA01F20AD93C190EF1FF3A80F00E
:101D20008480A14540F28180AEF1020E3C44A4EBD8
:101D300009041FFA83F9B4FBF0F300FB134449EAEA
:101D4000044403FB0CFCA44507D93C1903F1FF3004
:101D500067D2A44565D9023B3C4443EA0E40A0FB50
:101D60000293A4EB0C049C42CE469C4651D34ED029
:101D700055B1B8EB0E0364EB0C0404FA06F6CB4045
:101D80001E43CC40C5E90064002150E7C2F12003A6
:101D900020FA03F10CFA02FC24FA03F394400C43FA
:101DA0004FEA1C4800FA02FE1FFA8CF7B3FBF8F06A
:101DB00008FB1031230C43EA014300FB07F1994271
:101DC00008D91CEB030300F1FF362CD299422AD923
:101DD000023863445B1AA4B2B3FBF8F108FB113379
:101DE00044EA034401FB07F3A34208D91CEB0404B3
:101DF00001F1FF3613D2A34211D902396444E41A27
:101E000041EA004139E70446F0E6084606E7C845DE
:101E1000AED2B9EB020E63EB070C0138A8E73146EE
:101E2000EDE7034699E73046D4E7D6467FE76344BB
:101E300002384DE70646234608460FE7023E634454
:101E400030E700BF704700BF164B10B51C68236B0E
:101E5000B3B9182000F054FD0246206320B9124B9C
:101E600012485221FFF756F91149124BC0E90013ED
:101E7000114B83600B23838100210120C2E90401FF
:101E8000216B0E480B694C690D4A584302FB040054
:101E9000A3FB0232013340EB0200C1E9043020F021
:101EA000004010BD1C000020C5490008DC490008A6
:101EB0000E33CDAB34126DE6ECDE05002DF4515837
:101EC0002D7F954C0FB407B5064904AB086853F84D
:101ED000042B8168019300F0CFFF03B05DF804EBA1
:101EE00004B070471C00002030B51446002C9BB095
:101EF00005461A4605DA8B2303604FF0FF301BB00E
:101F000030BD4FF40273ADF80C3014BF04F1FF3351
:101F10002346029305934FF6FF7300910491ADF8A9
:101F20000E3069461E9B00F083FE431CBCBF8B2312
:101F30002B60002CE3D0009B00221A70DFE700002A
:101F400007B5009313460A46014603480068FFF7A9
:101F5000CBFF03B05DF804FB1C00002002440346E5
:101F6000934200D1704703F8011BF9E70D4B70B5A0
:101F70001D68AE6B044676B91A2000F0C1FC02461B
:101F8000A86320B9084B09483B21FFF7C3F81A2280
:101F90003146FFF7E3FFA96B2046BDE8704000F033
:101FA00007B800BF1C000020C5490008524B0008BC
:101FB00010B50C4641690369826986B001F26C7103
:101FC0000491016803914168029181680191C1689F
:101FD0000091074903EB43030B44064902EB42021D
:101FE0000A442046044901F0BBFA204606B010BD61
:101FF000E84B00080C4C0008C84B000838B50B4BE8
:102000001D686B6B044653B9242000F079FC02462E
:10201000686320B9064B07483221FFF77BF8696BEC
:102020002046BDE8384000F007B800BF1C00002083
:10203000C5490008214C00082DE9F0410C468046B6
:1020400001F0DEFB21460546404601F0DDFB436919
:102050009907044603F26C7706D1642297FBF2F3EA
:1020600002FB1373002B70D14FF4C87297FBF2F38D
:1020700002FB1373B3FA83F35B09644E302202FB55
:10208000036600F08DF900F097F9614B1B68002B97
:102090006AD06B68BB425AD12F68D8E90023D5E9D2
:1020A0000801002F5BD1824273EB01015EDB01234B
:1020B00023622B6D61684FF4616293FBF2F002FBC7
:1020C00010333C2293FBF2F502FB153223689B1A76
:1020D000A2682360491B121A3B2B6160A26051DD8C
:1020E000013161603C3B236063683B2B50DD013272
:1020F000A2603C3B6360A368172B4FDDE2690132AD
:10210000E261A2690132072AA8BF0022A261E26847
:10211000183B0132A3602369E26056F823108A421B
:102120000EDD0B2BA2EB0102E26003F1010209BFFD
:10213000636922610022013302BF22616361E261AF
:1021400000F034F92046BDE8F081012395E73846D8
:1021500000F07CF800289FD14FF0FF3304E082426A
:1021600073EB010102DA0023236209E0D5E91201D1
:1021700082428B41B4BF012300232362002B98D1FC
:10218000AB6A97E7002BAFDA013961603C33AAE70D
:10219000002BB0DA013AA2603C33ABE7002BCFDA78
:1021A000E269013AE261A269013A48BF0622A261EE
:1021B000E2681833013AE260A360002AC0D12369C3
:1021C000013B05D42361236956F82330E360B7E768
:1021D0000B23236163695A1E6261920703F26B73DA
:1021E00005D1642193FBF1F201FB123262B94FF485
:1021F000C87293FBF2F102FB1133B3FA83F35B096C
:1022000003F5B673E361DEE70123F9E7984C0008B4
:10221000B0020020DFB50C4B04464FF0FF361868C3
:102220004FF0FF3700226946CDE9006700F0ECFA75
:10223000002801DACDE90067DDE900010CB1C4E94D
:10224000000104B0D0BD00BF1C0000202DE9F04704
:10225000044601F0D5FA40F2B1739C4240F39980F4
:102260006FF4F667E519A4F2B27340F26D12AD1087
:1022700002FB03556FF4C86C6FF06302A4F26D7338
:10228000454F93FBF2F31D444FF4C87204EB0C036B
:102290004460B3FBF2F301461D4400F1500C0B7A8D
:1022A0004A694A2B33D1A60705EB020306D14FF04A
:1022B000640E94FBFEF60EFB164636B94FF4C87E4C
:1022C00094FBFEF60EFB1646FEB93B2AD4BF002255
:1022D00001221344013B8A69D617C3FB07268B6A88
:1022E000D21846EBE373C1E9082328318C45D6D1D7
:1022F000D0E90843D0E912128C429341B4BF0123C4
:10230000002303600120BDE8F0870022E1E7442BB1
:1023100001D1AB18DFE7A30705D1642694FBF6F3E0
:1023200006FB13437BBB4FF4C87394FBF3F603FB2C
:102330001646B6FA86F67609DFF860E0D1F80C901A
:102340004FF0300A2B464FF000080AFB06E608F172
:102350000108C14556F828E017DC03F104080726F8
:1023600098FBF6F6C6EBC606A8EB0606921B0E69AE
:1023700006F1FF3648BF0732C6EBC6063244724547
:1023800005DA1344A7E70126D6E77344DFE7073AE7
:10239000F5E70020B7E700BF80510100944C00082A
:1023A000014800F04ABA00BFB4020020014800F022
:1023B00046BA00BFB4020020014B186800F002B812
:1023C0001C0000202DE9F04F8DB0074601F018FAEF
:1023D0006D496E4D0446384600F08AFA064610BB39
:1023E0006B4B6C4A18606C4BA06218606B4B20659D
:1023F000C3E900224A2100220023C4E90300C4E902
:102400000500C4E90D00C4E90F00C4E90823C4E9CC
:1024100012232868217284F8301000F079FA2E60B7
:102420000DB0BDE8F08F2968002940F08E80286843
:1024300000F06EFA304600F016FA411C384600F003
:1024400091FA2860002840F08680534ADFF84C81DA
:10245000DFF83CA100231360514ACAF80030002085
:102460000021C8E90022C4E90333C4E90533C4E903
:102470000801C4E90D33C4E90F33C4E912014A224B
:102480002272A36284F83020236533783A2B08BF88
:10249000013633783C2B62D1751C424A42490AAB63
:1024A000284601F07DF80028BADD0A9BDA1E072ACB
:1024B000B6D8EB5C3E2BB3D102360A9BF518F35C21
:1024C0002D2B5AD101354FF0FF390023ADF81E30C6
:1024D000ADF8203008AF0AABCDE9013703930DF119
:1024E0001E03009331490AAB07AA284601F058F8A9
:1024F000002895DDBDF81E30BDF820603C2202FBAF
:102500000366BDF81C304FF4616202FB03660A9B50
:1025100009FB06F605EB0309EB5C3C2B40F0E88079
:1025200009F10105224A20490AAB284601F038F892
:10253000002841DC99F801303E2B3DD1194BA662B1
:10254000C8E90033CAF800606AE700F07AF90028A9
:102550007FF46DAF64E7314600F07DF975E7114A0D
:1025600014490AAB304601F01BF800287FF758AF3A
:102570000A9B033B072BA0D952E72B2B08BF013541
:102580004FF00109A1E700BFF84C000890020020BD
:10259000AC020020FB4C0008B00200201400002018
:1025A000E74B0008A0020020FF4C0008344D000853
:1025B00094020020124D00080A9BDA1E072A3FF6FB
:1025C0002FAFEB5C3E2B7FF42BAF09F102090A9B86
:1025D00009EB030519F803302D2B40F098800135E5
:1025E0004FF0FF390023ADF81C30ADF81E30ADF8C8
:1025F00020300A930AABCDE9027301930DF11E035B
:1026000000937A490AAB07AA284600F0C9FF0028C0
:1026100000F38380A6F5616304930A9B27461D445B
:102620004FF0000B2B782C2B08BF013595F800904C
:10263000B9F14D0F40F084800AAB0DF12602CDE9CF
:10264000013209AA00926A4903930DF12202284639
:1026500000F0A6FF03287FF4E3AEBDF822104B1E66
:102660000B2B3FF6DDAEBDF82420531E042B3FF6A6
:10267000D7AEBDF82630062B3FF6D2AEC7E903121F
:1026800087F808907B610A9B05EB030900254FF052
:102690000203ADF81C30ADF81E50ADF820500A957D
:1026A00099F800302F2B77D10AAB08AACDE9013277
:1026B0000DF11E0200924F49039307AA484600F00D
:1026C0006FFFA84268DC4A2100220023C4E90355B9
:1026D000C4E90555C4E90823C4E90D55C4E90F55FB
:1026E000C4E912232172A56284F83010256597E6AB
:1026F000414A42490AAB484600F052FF00287FF7A2
:102700001DAF0A9B033B072B7FF661AF88E62B2B9F
:1027100008BF01354FF0010964E7BDF81E20BDF880
:1027200020303C2101FB0233BDF81C204FF46161D5
:1027300001FB023309FB03F36EE74FF0010B71E776
:10274000B9F14A0F06BF01354B4644230A220BA9B3
:102750002846059300F006FADDF82C90059BADF8AD
:102760002600A94514D14D23BBF1000F07D12372D8
:1027700003210223C4E90313C4F814B086E784F8E4
:1027800030300B220123C4E90D230023E3637DE7EE
:1027900080B23B72786179E7BDF81E20BDF8203029
:1027A0003C2101FB0233BDF81C204FF4616101FBA9
:1027B0000233BB610A9D28374D44BBF1000FBCD0EA
:1027C000049B23650E4BC8F8003060680A4BA66274
:1027D000C8F80430FFF73AFDA26A236DCAF800205A
:1027E0009B1A084A18BF0123136019E6344D0008EC
:1027F000204D0008334D000894020020124D0008BF
:10280000A0020020B002002038B5074D0023044686
:10281000084611462B60FEF7C4FE431C02D12B680C
:1028200003B1236038BD00BF08020020014B1868C7
:10283000704700BF1C00002070477047704770470A
:10284000704710F8012B11F8013B012A28BF9A426A
:10285000F7D0D01A7047034611F8012B03F8012B6B
:10286000002AF9D17047034613F8012B002AFBD147
:10287000181A0138704700002DE9F84FDFF86CA0F6
:1028800006468946174601F019F9DAF8004034B1D6
:102890004B46984613F8012B3AB13D2AF9D1304600
:1028A00001F012F90020BDE8F88FA8EB0908A34653
:1028B00054F8040B0028F2D04246494600F08EFF3F
:1028C0000028F4D154F8043C03EB080513F8083051
:1028D0003D2BECD1DAF80030ABEB03039B10304614
:1028E0003B6001F0F1F8681CDDE700BF0C00002040
:1028F00007B501AAFFF7C0FF03B05DF804FB0000B5
:10290000024B0146186800F02DB800BF1C000020E3
:10291000024B0146186801F0DDB800BF1C00002022
:1029200070B50F4E0C463168054611B901F046F8F6
:1029300030602146284601F041F8431C03D14FF096
:10294000FF34204670BDC41C24F00304A042F8D01C
:10295000211A284601F032F80130F2D1EFE700BF2A
:10296000B80200202DE9F843CD1C25F003050835F9
:102970000C2D38BF0C25002D064601DBA94204D9D9
:102980000C2333600020BDE8F883DFF8D48000F02A
:1029900069F8D8F800301C4644BB29463046FFF79A
:1029A000BFFF431C044658D1D8F800402746002FEB
:1029B00043D1002C4BD023683946304604EB030941
:1029C00000F0FCFF814542D121686D1A294630464E
:1029D000FFF7A6FF01303AD023682B442360D8F8D4
:1029E00000305A6862BBC8F800700FE02268521BC2
:1029F00020D40B2A17D96119A342256018BF59604A
:102A0000636808BFC8F8001062514B60304600F0A0
:102A10002FF804F10B00231D20F00700C21A1CBF81
:102A20001B1AA350AFE76268A3420CBFC8F800208E
:102A30005A60EBE723466468AEE73C467F68B6E73A
:102A40001A465B68A342FBD100235360DEE70C23E8
:102A50003360304600F00CF894E70560D6E700BF1D
:102A6000BC0200200148FFF7E9BE00BFB60200200B
:102A70000148FFF7E5BE00BFB60200202DE9F04394
:102A8000364E86460D46284615F8014B375D17F041
:102A90000807F8D12D2C26D12C780127851C3BBBAB
:102AA000302C32D00A234FF0FF380026B8FBF3F861
:102AB00003FB08F96FEA09093046A4F1300CBCF1B8
:102AC000090F29D86446A34237DDB6F1FF3F07D08E
:102AD00080452FD301D1A1452CDB00FB034001260B
:102AE00015F8014BE9E72B2C04BF2C78851CD6E7A1
:102AF000102BD8D1302CD6D1287800F0DF00582800
:102B0000D1D16C7810230235CDE72B7803F0DF03A9
:102B1000582BF6D00823C6E7A4F1410CBCF1190FDD
:102B200001D8373CCFE7A4F1610CBCF1190F04D8F0
:102B3000573CC8E74FF0FF36D2E7731C06D122237B
:102B4000CEF80030304632B9BDE8F08307B14042DC
:102B5000002AF9D006B1691E1160F5E7524A000853
:102B6000FFF78CBF13460A46014602480068FFF78C
:102B700085BF00BF1C0000202DE9F0478E681F466E
:102B8000BE420B6882460C4690462DD8B1F90C2007
:102B900012F4906F26D06569096905EB4505A3EB32
:102BA000010905EBD5757B1C4B446D109D4238BF68
:102BB0001D46530527D52946FFF7D4FE064660B3C8
:102BC00021694A4600F06CFFA38923F4906343F027
:102BD0008003A381266165614E44A5EB090526604B
:102BE000A5603E46BE4200D93E4620683246414678
:102BF00000F0DAFDA3689B1BA360236833442360C5
:102C00000020BDE8F0872A4600F0AEFF0646002807
:102C1000E0D12169504600F05DFF0C23CAF8003076
:102C2000A38943F04003A3814FF0FF30E9E70000A0
:102C30002DE9F04F98468B891B069DB007460D463F
:102C4000144610D50B6973B94021FFF78BFE28603D
:102C5000286130B90C233B604FF0FF301DB0BDE858
:102C6000F08F40236B610023099320238DF82930D6
:102C7000CDF80C803023DFF89C818DF82A304FF09E
:102C8000010923469A4613F8012B0AB1252AF9D1E6
:102C9000BAEB040B0BD05B46224629463846FFF7B9
:102CA0006BFF013000F0A780099A5A4409929AF804
:102CB0000030002B00F09F8000234FF0FF32CDE961
:102CC00005230AF1010A049307938DF853301A93F0
:102CD0005446052214F8011B4E4800F091FE049A58
:102CE000D8B9D00644BF20238DF85330110744BF14
:102CF0002B238DF853309AF800302A2B15D0079AE1
:102D0000544600204FF00A0C214611F8013B303B9D
:102D1000092B4BD9B0B1079214E0A0EB080309FAD4
:102D200003F313430493A246D2E7039B191D1B68C8
:102D30000391002BBBBF5B4242F002020793079353
:102D4000B8BF049223782E2B0AD163782A2B32D174
:102D5000039B1A1D1B68039243EAE3730234059335
:102D6000DFF8B4A021780322504600F049FE38B1C4
:102D7000049BA0EB0A0040228240134301340493D9
:102D800014F8011B25488DF82810062200F038FEA3
:102D9000002836D0224B1BBB039B073323F00703CD
:102DA00008330393099B334409936AE70CFB02320F
:102DB0000C460120A8E700230134059319464FF083
:102DC0000A0C204610F8012B303A092A03D9002BAF
:102DD000C6D00591C4E70CFB012104460123F0E7AE
:102DE00003AB00932A460F4B04A93846AFF300808B
:102DF000421C0646D6D1AB895B063FF52DAF09983C
:102E00002CE703AB00932A46064B04A9384600F092
:102E1000B9F9EDE7464D00084C4D0008504D00084B
:102E200000000000792B00089368013B002B10B4D0
:102E3000936007DA9469A34201DB0A2902D110BC2E
:102E400000F01DBC1368581C10601970084610BCB7
:102E50007047F8B506460F461446D518AC4201D166
:102E6000002007E014F8011B3A463046FFF7DCFF6C
:102E7000431CF3D1F8BD00002DE9F04F0D469DB085
:102E800014469846064618B1036A0BB900F032FBA7
:102E90006B6ED90705D4AB899A0502D4A86DFFF7EC
:102EA000CDFCAB891B0701D52B699BB92946304660
:102EB00000F024FC70B16B6EDC0704D54FF0FF30DE
:102EC0001DB0BDE8F08FAB899805F7D4A86DFFF76A
:102ED000B7FCF3E70023099320238DF82930CDF8C0
:102EE0000C803023DFF8AC818DF82A304FF00109D7
:102EF00023469A4613F8012B0AB1252AF9D1BAEBD9
:102F0000040B0BD05B46224629463046FFF7A1FF53
:102F1000013000F0A780099A5A4409929AF80030CB
:102F2000002B00F09F8000234FF0FF32CDE90523F6
:102F30000AF1010A049307938DF853301A9354460B
:102F4000052214F8011B534800F05AFD049AD8B921
:102F5000D10644BF20238DF85330130744BF2B23E1
:102F60008DF853309AF800302A2B15D0079A544622
:102F700000204FF00A0C214611F8013B303B092B91
:102F80004BD9B0B1079214E0A0EB080309FA03F3A0
:102F900013430493A246D2E7039B191D1B680391B8
:102FA000002BBBBF5B4242F0020207930793B8BFFE
:102FB000049223782E2B0AD163782A2B32D1039BDB
:102FC0001A1D1B68039243EAE37302340593DFF88A
:102FD000C8A021780322504600F012FD38B1049BAE
:102FE000A0EB0A004022824013430134049314F8FA
:102FF000011B2A488DF82810062200F001FD002848
:103000003FD0274B1BBB039B073323F00703083339
:103010000393099B3B4409936AE70CFB02320C467D
:103020000120A8E700230134059319464FF00A0C4C
:10303000204610F8012B303A092A03D9002BC6D0BC
:103040000591C4E70CFB012104460123F0E703AB23
:1030500000932A46134B04A93046AFF3008007467D
:10306000781CD6D16B6ED90705D4AB899A0502D4EA
:10307000A86DFFF7E5FBAB895B063FF51FAF09982D
:103080001EE703AB00932A46064B04A9304600F026
:1030900079F8E4E7464D00084C4D0008504D000813
:1030A00000000000532E00082DE9F0471646984610
:1030B0008A680B69DDF820909342B8BF13463360ED
:1030C00091F8432007460C460AB101333360236868
:1030D000990642BF336802333360256815F0060550
:1030E00006D104F1190AE36832689B1AAB4226DC68
:1030F00094F843302268003B18BF012392062BD47A
:1031000004F1430241463846C84701301ED02368C7
:10311000226903F00603042B02BFE5683368ED1A49
:10312000A3680CBF25EAE57500259342C4BF9B1A2E
:10313000ED1800261A34B5421AD1002008E0012308
:10314000524641463846C847013003D14FF0FF3060
:10315000BDE8F0870135C6E7E1185A1C302081F838
:103160004300224494F8451082F843100233C7E725
:103170000123224641463846C8470130E6D0013691
:10318000D9E700002DE9FF470F7E0C9E782F91466E
:1031900080460C469A4601F1430207D8622F0AD8AE
:1031A000002F00F0DD80582F00F0C38004F14206AC
:1031B00084F842703AE0A7F16303152BF6D801A119
:1031C00051F823F01D32000831320008AD310008FB
:1031D000AD310008AD310008AD31000831320008D2
:1031E000AD310008AD310008AD310008AD31000847
:1031F00047330008BF320008FF320008AD31000835
:10320000AD31000869330008AD310008BF32000855
:10321000AD310008AD3100080733000833681A1DCE
:103220001B68326004F1420684F842300123A8E0B2
:1032300031682368081D30601E0601D50D6803E063
:103240005D06FBD5B1F900506168002D78DA2D20BC
:10325000002984F84300A1602DDA5E486D420A23FC
:103260001646B5FBF3F103FB1157C75D06F8017D68
:103270002F46BB420D46F4D9082B0BD12368DF073C
:1032800008D5236961689942DEBF302306F8013C06
:1032900006F1FF36921B2261CDF800A04B4603AA2F
:1032A00021464046FFF700FF01306FD14FF0FF305D
:1032B00004B0BDE8F08723F004032360CDE7216864
:1032C0003368080653F8045B02D4490648BFADB220
:1032D0006F2F4048336014BF0A230823002184F86D
:1032E00043106668A660002EBADB216821F0040155
:1032F0002160002DB4D1002EB2D11646BCE7236860
:1033000043F0200323603448782784F8457023680D
:1033100031681F0651F8045B02D45F0648BFADB2A6
:103320003160D90744BF43F0200323601DB110234F
:10333000D4E72848E9E7236823F020032360F6E771
:1033400024480A23CDE7336825686169181D306079
:103350002E061B6801D5196002E06806FBD51980AE
:1033600000232361164697E733681A1D32601E68F2
:1033700062680021304600F043FB08B1801B6060AA
:1033800063682361002384F8433085E7236932466C
:1033900049464046D047013088D023689B0714D463
:1033A000E068039B9842B8BF184681E70123324684
:1033B00049464046D04701303FF478AF0135E368D5
:1033C00003995B1AAB42F1DCEAE7002504F1190628
:1033D000F5E700BF574D0008684D0008002310B501
:1033E0000446C0E90033C0E9043383608181436649
:1033F000C2818361194608225C30FEF7AFFD0D4B98
:1034000063620D4BA3620D4BE3620D4B23630D4BC7
:1034100024629C4206D003F16802944202D0D03369
:103420009C4205D104F15800BDE81040FFF704BAF2
:1034300010BD00BFF53500081B36000853360008E4
:1034400077360008C0020020024A0349034800F012
:1034500069B800BF6C000020154300082000002060
:1034600041680C4B994210B5044601D000F052FF60
:10347000A168094B994202D0204600F04BFFE16859
:10348000064B994204D02046BDE8104000F042BFF0
:1034900010BD00BFC00200202803002090030020C0
:1034A00010B50B4B0B4C0C4A1A602046002204212D
:1034B000FFF794FF04F1680001220921FFF78EFF56
:1034C00004F1D0000222BDE810401221FFF786BFB0
:1034D000F8030020C0020020493400080148FFF72B
:1034E000ADB900BFB70200200148FFF7A9B900BF7E
:1034F000B702002010B50446FFF7F0FF236A1BB1A6
:10350000BDE81040FFF7F0BF044B2362044B1B687B
:10351000002BF5D1FFF7C4FFF2E700BF61340008CC
:10352000F80300202DE9F843074688461446002694
:10353000D4E90195B9F1010905D52468002CF7D12A
:103540003046BDE8F883AB89012B07D9B5F90E30B9
:10355000013303D029463846C04706436835E9E7BA
:103560000EB400B59CB01DAB029006906FF0004108
:10357000094807910491094953F8042B0591006803
:10358000019302A9FFF754FB029B00221A701CB0A2
:103590005DF804EB03B070471C0000200802FFFF39
:1035A0000EB430B59CB01FAC4FF4017254F8045BFC
:1035B000ADF8142002900690FFF755F90B4B0390DD
:1035C00007900B930A48019400230F9314934FF62E
:1035D000FF73ADF816302A46234602A9006800F0B2
:1035E00049FB1CB0BDE8304003B0704717360008F7
:1035F0001C00002010B50C46B1F90E1000F0CCF9FB
:103600000028ABBF636DA3891B1823F48053ACBFA4
:103610006365A38110BD002070472DE9F0411F466E
:103620008B89DB0505460C46164605D5B1F90E100B
:103630000223002200F09EF9A389B4F90E1023F4AE
:103640008053A38132463B462846BDE8F04100F056
:10365000C5B910B50C46B1F90E1000F08BF9431C3A
:10366000A38915BF606523F4805343F48053A3817D
:1036700018BFA38110BDB1F90E1000F06BB9F8B5F9
:103680000E461446054618B1036A0BB9FFF732FF20
:10369000A369A360A3891A0701D5236943B9214609
:1036A000284600F02BF818B14FF0FF373846F8BD28
:1036B00023682269981A6369F6B28342374605DCAB
:1036C0002146284600F026FE0028EDD1A368013BE4
:1036D000A36023685A1C22601E706269431C9A42D0
:1036E00004D0A389DB07E1D50A2EDFD12146284685
:1036F00000F010FE0028D9D0D6E7000038B5294BDD
:10370000054618680C4618B1036A0BB9FFF7F2FEBC
:10371000B4F90C30190722D4DA0607D409222A603A
:1037200043F04003A3814FF0FF3033E0580712D538
:10373000616B41B104F14403994202D0284600F084
:10374000C9F900236363A38923F02403A381002321
:10375000636023692360A38943F00803A38123697D
:103760004BB9A38903F42073B3F5007F03D021463E
:10377000284600F01DFEB4F90C3013F001020AD007
:103780000022A26062695242A261226942B913F02A
:103790008000C5D138BD990758BF6269A260F4E7BF
:1037A0000020F7E71C000020884210B501EB02045E
:1037B00002D98442234607D8431EA14208D011F8FB
:1037C000012B03F8012FF8E7024401468A4200D199
:1037D00010BD13F8014D02F8014DF7E710B56AB1BD
:1037E0000139841810F8012B11F8013F9A4203D1D6
:1037F000A04201D0002AF5D1D01A10BD1046FCE736
:1038000000487047780000202DE9F0414D4A0C46F1
:103810000023D0E9000100F025FF002ABCBF02F51B
:10382000A83202F5C0724FF4616100F52F20B2FB9F
:10383000F1F301FB13224FF03C01ACBF00F66C200A
:1038400000F66B20A360B2FBF1F301FB132263606F
:103850002260C31C072293FBF2F2C2EBC2029B1A46
:10386000394955D50733A361A0F50E33A3F52C7361
:1038700093FBF1F1354B03FB010048F6AC63B0FB61
:10388000F3F3034440F2B45CB0FBFCF29B1A40F249
:103890006D172F4AB0FBF2F264269B1AB3FBF7F2C6
:1038A000B3FBFCF3B2FBF6F5EB1A034407FB123350
:1038B000992003EB8307023703F1010EB7FBF0FCFD
:1038C00000FB0CF002304FF00508B0FBF8F0AEEB57
:1038D000000040F2F95E77458CBF6FF009070227C0
:1038E00067444FF4C87C0CFB0121012F98BF0131C4
:1038F000B3F5997F12D3A3F59973E361A1F26C71CB
:103900000023E060C4E9047123622046BDE8F08131
:103910000028A361A8DB90FBF1F1ABE712F0030FE5
:1039200002D106FB15255DB94FF4C875B2FBF5F65B
:1039300005FB1622B2FA82F252093B331344DCE74C
:103940000122FAE780510100B13A02004FC5FDFFA4
:10395000B03A020038B5064D0023044608462B60F5
:10396000FDF7CCFD431C02D12B6803B1236038BDA9
:103970000802002038B5074D0446084611460022CB
:103980002A601A46FDF774FD431C02D12B6803B16F
:10399000236038BD0802002038B5074D04460846AC
:1039A000114600222A601A46FDF7FCFC431C02D196
:1039B0002B6803B1236038BD0802002038B5064DDE
:1039C0000023044608462B60FDF7C8FB431C02D1C8
:1039D0002B6803B1236038BD0802002038B5074DBD
:1039E00004460846114600222A601A46FDF754FD97
:1039F000431C02D12B6803B1236038BD08020020AC
:103A000001F0FF01102A2BDB10F0070F08D010F88F
:103A1000013B013A8B422DD010F0070F42B3F6D193
:103A2000F0B441EA012141EA014122F007047FF0AC
:103A300000070023F0E80256083C85EA010586EA03
:103A4000010685FA47F5A3FA87F586FA47F6A5FA3F
:103A500087F68EB9EED1F0BC01F0FF0102F007024B
:103A600032B110F8013B013A83EA010313B1F8D1F6
:103A70000020704701387047002D06BF35460338D7
:103A8000073815F0010F07D1013015F4807F02BF10
:103A9000013015F4C03F0130F0BC0138704700BF61
:103AA0000A44914200F1FF3300D1704710B511F87C
:103AB000014B03F8014F9142F9D110BD0148FEF7C7
:103AC000BDBE00BFB50200200148FEF7B9BE00BF71
:103AD000B502002038B50546002941D051F8043C14
:103AE0000C1F002BB8BFE418FEF7BCFF1D4A13687B
:103AF00033B9636014602846BDE83840FEF7B8BFAC
:103B0000A34208D9206821188B4201BF19685B685D
:103B100009182160EDE71A465B680BB1A342FAD998
:103B200011685018A0420BD12068014450188342FC
:103B30001160E0D118685B68536008441060DAE7F0
:103B400002D90C232B60D6E7206821188B4204BFD2
:103B500019685B68636004BF091821605460CAE794
:103B600038BD00BFBC0200202DE9F041804615465B
:103B70000C4621B9BDE8F0411146FEF7F3BE2AB963
:103B8000FFF7A8FF00242046BDE8F08100F0E2FC2A
:103B90008542064602D8B5EB500FF4D82946404678
:103BA000FEF7E0FE07460028ECD0B5422A46214643
:103BB00028BF3246FFF774FF21464046FFF78AFFD1
:103BC0003C46E0E738B54B1C144603D14FF0FF35B7
:103BD000284638BD938923F0200393815368526BA4
:103BE000CDB28AB1A26B9A4208DD23685A1E2260C8
:103BF00003F8015C636801336360E9E7214600F084
:103C00004CFC0028F1D0E1E72169226841B19142E2
:103C100006D212F8011CA94202D1013A2260EAE759
:103C2000C4E90F2304F1440363630323A36323461E
:103C300003F8465F23600123DEE710B50C46496BAD
:103C400069B104F14403994201D0FFF743FF236CAB
:103C500063600020606313B1E36B236010BD2369D0
:103C6000236000236360A38943F02003A3814FF006
:103C7000FF30F3E72DE9F0470C46ADF5227D00213A
:103C8000CDE94411A649A0910DF10408A549A64F1C
:103C9000CDF818810646A19100931378002B00F00F
:103CA0005A81F95C11F0080102F1010519D063682D
:103CB000002B0FDD23681A78BA5C120701D42A465C
:103CC000EBE7459A0132459262680133013A62603E
:103CD0002360ECE7A19B2146304698470028E9D0B5
:103CE000EDE7252B12D099466368002B40F39380B3
:103CF000226813784B4540F02E816368013B636076
:103D0000459B0132013322604593D8E741914391AD
:103D100053782A2B02BF1023951C41930A22A946EF
:103D200019F8011BA1F13003092B1ED9DFF8FCA102
:103D300003225046FFF764FE38B1419AA0EB0A0017
:103D400001238340134341934D4615F8013B782BE3
:103D500006D8572B10D8252BC5D057D8002B65D0A7
:103D6000032347930A2342936BE0439B02FB031117
:103D7000303943914D46D2E7A3F15802202AEFD8BB
:103D800001A151F822F000BF773E0008613D000814
:103D9000613D0008993E0008613D0008613D000852
:103DA000613D0008613D0008613D0008613D00087B
:103DB000613D0008AF3E0008953E0008133E000834
:103DC000133E0008133E0008613D0008893E0008CC
:103DD000613D0008613D0008613D0008613D00084B
:103DE000BF3E0008913E0008333E0008613D0008D8
:103DF000613D0008BB3E0008613D0008953E00089B
:103E0000613D0008613D0008773E0008453B022BFC
:103E1000A6D8052314E0A19B2146304698470028E8
:103E20003FF466AF4498002840F08D804FF0FF309B
:103E30008DE0419B43F40873419310234293042384
:103E400047936368002B48DD419B590604D42368DF
:103E50001A78BA5C120747D4479B022B56DC6B4694
:103E6000224641A9304600F07BF8012873D0022891
:103E70007FF425AFD6E7419A42F4007241921022B6
:103E80006E2B429202D9DAE7002342930323D7E74D
:103E90000823D3E70A22F3E72946404600F0C4FA94
:103EA000419B43F04003419305460123C8E7419BF2
:103EB00043F0400341930023C2E70223C0E7419847
:103EC000C3063FF5FCAE009B459A191D00911B6887
:103ED000C0074CBF1A801A60F1E6A19B214630460C
:103EE00098470028B0D09DE7459A01324592626814
:103EF000013A002A626002DD01332360A7E7A19B3B
:103F00002146304698470028A1D08BE7042B0FDCD0
:103F10006B46224641A9304600F07CF8A5E700BF79
:103F2000C53B00083B3C0008524A00084C4D0008C5
:103F30000A4B002B3FF4C3AE6B46224641A93046E4
:103F4000AFF3008091E7A3895B063FF56FAF0DF5F6
:103F5000227DBDE8F0874498F9E700BF000000002B
:103F60002DE9F84315468A6880460C4632B98A69BD
:103F7000002A14BF4FF0FF3201228A602268DFF866
:103F80009090D1065FBF1A68111D1960166800274E
:103F9000A06988B1012807D12B681A7863699B5CF6
:103FA00053B9002F31D022E0022820D12B681B7892
:103FB00019F803301B071AD42368DA065EBF2B6892
:103FC0001B7806F8013B2A686B6801322A60A268F8
:103FD000013B013A6B600137A26042B1002BD7DC94
:103FE000D4F880312946404698470028D0D023682D
:103FF00013F0100305D1E2680132E260A26902B158
:10400000337023693B4423610020BDE8F88300BF7F
:10401000524A00082DE9F04F98467A4B0C468246EA
:10402000164693E8070087B003AB83E80700764B9A
:10403000A169764A032908BF1A46A36801925A1E4D
:10404000B2F5AE7F88BF6FF4AE75274682BF03EB33
:10405000050940F25D13A36057F81C3B43F450631D
:1040600098BF4FF0000923603D464FF0000B3168C8
:1040700003AB097853F82B000222FFF7C1FC00289C
:1040800040D0BBF1010F12D162682AB92268082121
:1040900042F4007261602260226822F4A062226011
:1040A000A268511EA160DAB94FF0020BDFE7BBF145
:1040B000020F06D0A268511EA1608AB94FF0010B11
:1040C000D5E7226802F4C061B1F5007F1FD142F448
:1040D00080722260A26810216160511EA160B2B19D
:1040E0003268511C3160127805F8012B7268013A70
:1040F000002A726006DCD4F8802131465046904791
:10410000002874D10BF1010BBBF1030FAFD1636831
:104110000BB90A23636063683D496069C91A00F0FE
:1041200083F94FF0000BA368226873B331686069AC
:1041300091F800C010F80C0038B3BCF1300F16D164
:10414000100514D50BF1010BB9F1000F03D00133A9
:1041500009F1FF39A3607368013B002B73600DDD2B
:10416000336801333360A368013BA360DBE722F4CB
:10417000106222600B7805F8013BECE7D4F880313F
:104180003146504698470028EDD02368D9050DD513
:10419000BD4209D915F8011CD4F87C31324650468D
:1041A000984705F1FF394D46BD4228D0226812F0EC
:1041B000100213D12A706368019E39465046B047F9
:1041C000D8F8003021681A1DC8F8002011F0200F1F
:1041D0001B680FD01860E3680133E3602369ED1BAF
:1041E0005D442B442361002007B0BDE8F08F4FF001
:1041F000000BCAE7CA074CBF18801860EBE7012024
:10420000F2E700BF944D000861460008612B0008EA
:10421000894D0008B1F90C20F8B5170705460C4682
:1042200056D44B68002B02DC0B6C002B3DDDE66A9C
:10423000002E3AD0002312F480522F68216A2B609E
:1042400025D0626DA389580705D56368D21A636BC0
:104250000BB1236CD21A216AE66A00232846B047C4
:10426000411C24D00023636023692360A389DA04FE
:1042700000D56065616B2F60B9B104F144039942C8
:1042800002D02846FFF726FC002363630DE00123DC
:104290002846B047461C0246D4D12B68002BD1D00B
:1042A0001D2B01D0162B2AD12F6000202EE02A686A
:1042B000B4F90C3042B11D2A01D0162A21D10023B5
:1042C000636023692360D5E7626022692260CEE7DC
:1042D0000F69002FE9D093070E6808BF4B690F6084
:1042E00018BF0023F61B8B60002EDEDD216AD4F898
:1042F00028C033463A462846E047002807DCB4F990
:104300000C3043F04003A3814FF0FF30F8BD074469
:10431000361AE9E738B50B6905460C4613B900258E
:10432000284638BD18B1036A0BB9FFF7E3F8B4F9B2
:104330000C30002BF3D0626ED00704D4990502D460
:10434000A06DFEF77BFA28462146FFF763FF636EF8
:10435000DA070546E4D4A3899B05E1D4A06DFEF7F6
:104360006FFADDE770B50C46B1F90E10002996B072
:1043700015461E460DDAA38913F0800F4FF0000199
:1043800014BF40234FF48063002031602B6016B0CF
:1043900070BD6A4600F0BCF80028ECDB019901F41E
:1043A0007041A1F50053594259414FF48063EBE746
:1043B0008B89F7B59D0706460C4607D504F14703E0
:1043C000236023610123636103B0F0BD01AB6A4642
:1043D000FFF7C8FF009F054639463046FEF7C2FA90
:1043E00048B9B4F90C309A05EED423F0030343F036
:1043F0000203A381E2E7A389206043F08003A38145
:10440000019BC4E904075BB1B4F90E10304600F01B
:1044100091F828B1A38923F0030343F00103A3819A
:10442000A3891D43A581CFE770B50B7804465E2BA9
:104430000BBF4B784A1C8A1C002108BF01210138A0
:1044400004F1FF0500F8011FA842FBD10BB9501E73
:1044500070BD81F00101E1541046024612F8015B83
:104460002D2D05D05D2D16D0002DF1D02B46F2E775
:1044700046785D2EFAD0B342F8DC02301A4601329B
:104480009642A154FBDCF21A013A5D1CB342A8BF6C
:104490000022AB18E1E71046DAE72DE9F0410C46BF
:1044A000496B04F1440399421DD14FF48061FEF73A
:1044B00059FA18B94FF0FF30BDE8F0814FF480632E
:1044C000A36394F84630606380F8FF3394F8453076
:1044D00080F8FE3394F8443080F8FD3300F2FD306C
:1044E00020600020E8E7A66B77003A46FFF73CFB28
:1044F00005460028DED000EB06080146324640465D
:10450000FFF7CEFAC4E90D57C4F80080E9E70000D0
:1045100038B5074D00230446084611462B60FDF7C9
:1045200033F8431C02D12B6803B1236038BD00BFB0
:104530000802002038B5064D0023044608462B60CB
:10454000FDF743F8431C02D12B6803B1236038BD4B
:104550000802002051F8043C181F002BBCBF0B5868
:10456000C0187047242B2DE9F0478646904601D8A5
:10457000012B06D1FEF75AF9162303600020BDE88F
:10458000F08736480D462A4615F8014B065D16F0B1
:104590000806F8D12D2C24D12C780126951C2BBB94
:1045A000302C30D00A2306F1004C0CF1FF3C0022E5
:1045B000BCFBF3F9104603FB19CAA4F13007092F1D
:1045C00028D83C46A34234DD571C07D081452DD363
:1045D00001D1A2452ADB00FB0340012215F8014B63
:1045E000EBE72B2C04BF2C78951CD8E7102BDAD1E5
:1045F000302CD8D12A7802F0DF02582AD3D16C7837
:1046000010230235CFE72B7803F0DF03582BF6D0C9
:104610000823C8E7A4F14107192F01D8373CD1E797
:10462000A4F16107192F04D8573CCBE74FF0FF32B4
:10463000D4E7531C08D12223CEF800306046B8F1ED
:10464000000F9CD0691E06E006B14042B8F1000F91
:1046500095D0002AF6D1C8F8001090E7524A000819
:10466000FFF780BF7BB972B90029BEBF00204FF0B1
:10467000004106E008BF00281CBF6FF000414FF06A
:10468000FF30FDF7DFBBADF1080C6DE904CE00296A
:1046900009DB002B1ADBFDF777FADDF804E0DDE932
:1046A000022304B07047404261EB4101002B1BDB49
:1046B000FDF76AFADDF804E0DDE9022304B04042C8
:1046C00061EB4101524263EB43037047524263EB9B
:1046D0004303FDF759FADDF804E0DDE9022304B0F5
:1046E000404261EB41017047524263EB4303FDF7E7
:1046F0004BFADDF804E0DDE9022304B0524263EB3B
:10470000430370472E2E2F73797374656D2F737268
:10471000632F73746D333266342D68616C2F73743C
:104720006D3332663478785F68616C5F636F727482
:1047300065782E63000000002E2E2F737973746548
:104740006D2F7372632F73746D333266342D68610D
:104750006C2F73746D3332663478785F68616C5F88
:104760006770696F2E6300002E2E2F737973746546
:104770006D2F7372632F73746D333266342D6861DD
:104780006C2F73746D3332663478785F68616C5F58
:104790007263632E630000002C2066756E6374697B
:1047A0006F6E3A2000000000617373657274696F68
:1047B0006E2022257322206661696C65643A20664A
:1047C000696C6520222573222C206C696E6520257A
:1047D00064257325730A000061626F727428292CA6
:1047E0002065786974696E672E2E2E003A74740005
:1047F000537461636B206672616D653A0A00000054
:10480000205230203D2020253038580A000000007A
:10481000205231203D2020253038580A0000000069
:10482000205232203D2020253038580A0000000058
:10483000205233203D2020253038580A0000000047
:1048400020523132203D20253038580A0000000027
:10485000204C52203D2020253038580A000000000E
:10486000205043203D2020253038580A0000000009
:1048700020505352203D20253038580A00000000B7
:104880004653522F4641523A0A00000020434653F5
:1048900052203D2020253038580A00002048465339
:1048A00052203D2020253038580A0000204446532D
:1048B00052203D2020253038580A00002041465320
:1048C00052203D2020253038580A0000204D4D460A
:1048D0004152203D20253038580A000020424641F0
:1048E00052203D2020253038580A00004D6973635E
:1048F0000A000000204C522F4558435F5245545542
:10490000524E3D20253038580A0000005B48617245
:10491000644661756C745D0A000000005B4275734B
:104920004661756C745D0A005B557361676546612D
:10493000756C745D0A0000000000000000000000BB
:10494000010203040607080957726F6E6720706141
:1049500072616D65746572732076616C75653A205D
:1049600066696C65202573206F6E206C696E65200A
:1049700025640D0A0000000053656E736F725F744A
:10498000656D70657261747572653A2025642043A7
:10499000656C736975730A0043757272656E742075
:1049A0006461746520616E642074696D6520746F44
:1049B000206765742074656D7065726174757265C9
:1049C0003A202573005245454E54206D616C6C6F42
:1049D0006320737563636565646564002F5F5F774B
:1049E0002F61726D2D6E6F6E652D656162692D6729
:1049F00063632D787061636B2F61726D2D6E6F6EC6
:104A0000652D656162692D6763632D787061636BE5
:104A10002F6275696C642F6C696E75782D783634E9
:104A20002F736F75726365732F6E65776C69622D76
:104A300063796777696E2F6E65776C69622F6C6931
:104A400062632F7374646C69622F72616E642E638B
:104A5000000020202020202020202028282828286E
:104A60002020202020202020202020202020202046
:104A7000202088101010101010101010101010109E
:104A8000101004040404040404040404101010109E
:104A90001010104141414141410101010101010159
:104AA00001010101010101010101010101101010C9
:104AB000101010424242424242020202020202022C
:104AC000020202020202020202020202021010109C
:104AD00010200000000000000000000000000000A6
:104AE00000000000000000000000000000000000C6
:104AF00000000000000000000000000000000000B6
:104B000000000000000000000000000000000000A5
:104B10000000000000000000000000000000000095
:104B20000000000000000000000000000000000085
:104B30000000000000000000000000000000000075
:104B40000000000000000000000000000000000065
:104B500000002F5F5F772F61726D2D6E6F6E652D78
:104B6000656162692D6763632D787061636B2F6186
:104B7000726D2D6E6F6E652D656162692D67636361
:104B80002D787061636B2F6275696C642F6C696E30
:104B900075782D7836342F736F75726365732F6E49
:104BA00065776C69622D63796777696E2F6E6577BB
:104BB0006C69622F6C6962632F74696D652F617314
:104BC0006374696D652E6300252E337320252E33A3
:104BD0007325336420252E32643A252E32643A251B
:104BE0002E32642025640A004A616E4665624D617A
:104BF000724170724D61794A756E4A756C41756784
:104C00005365704F63744E6F7644656353756E4D94
:104C10006F6E547565576564546875467269536163
:104C2000742F5F5F772F61726D2D6E6F6E652D65CE
:104C30006162692D6763632D787061636B2F6172A8
:104C40006D2D6E6F6E652D656162692D6763632DD5
:104C5000787061636B2F6275696C642F6C696E7517
:104C6000782D7836342F736F75726365732F6E6588
:104C7000776C69622D63796777696E2F6E65776CE3
:104C800069622F6C6962632F74696D652F6C636C48
:104C900074696D652E6300001F0000001C00000099
:104CA0001F0000001E0000001F0000001E0000008A
:104CB0001F0000001F0000001E0000001F00000079
:104CC0001E0000001F0000001F0000001D0000006B
:104CD0001F0000001E0000001F0000001E0000005A
:104CE0001F0000001F0000001E0000001F00000049
:104CF0001E0000001F000000545A00474D540025BC
:104D000031315B2D2B302D39412D5A612D7A5D25A6
:104D10006E002531315B412D5A612D7A5D256E0083
:104D20004D256875256E2E256875256E2E256875AE
:104D3000256E002F256875256E3A256875256E3A13
:104D4000256875256E00232D302B2000686C4C00E3
:104D5000656667454647003031323334353637387B
:104D600039414243444546003031323334353637D9
:104D7000383961626364656600412D46612D66388D
:104D80003930313233343536375D002B2D00303039
:104D9000007858008B4D00088E4D0008914D00089A
:104DA0001000000000000000017A5200027C0E0199
:104DB0001B0C0D001000000018000000AADAFFFF15
:104DC00010000000000000001000000000000000C3
:104DD000017A5200027C0E011B0C0D00380000000D
:104DE000180000001CECFFFF9E00000000510E1098
:104DF00084048503860287015BC7C6C5C40E004CC8
:104E00000A420B0A420B0E108404850386028701B6
:084E100051C7C6C5C40E000025
:084E180070CDFF7F01000000D6
:104E20007856341201FFFFFF10000000040200203A
:104E30000024F400FB4C0008FB4C0008200000207C
:104E400000000000C0020020280300209003002082
:104E50000000000000000000000000000000000052
:104E60000000000000000000000000000000000042
:104E70000000000000000000000000000000000032
:104E80000000000000000000000000000000000022
:104E900003000000C002002001000000000000002C
:104EA0004A000000000000000000000000000000B8
:104EB00000000000000000000000000000000000F2
:104EC00000000000000000004A0000000000000098
:104ED00000000000000000000000000000000000D2
:104EE00000000000000000000000000000000000C2
:044EF000325476982A
:040000050800018965
:00000001FF
